{
  "contractName": "FileStorage",
  "abi": [
    {
      "inputs": [
        {
          "internalType": "uint256",
          "name": "",
          "type": "uint256"
        }
      ],
      "name": "files",
      "outputs": [
        {
          "internalType": "string",
          "name": "fileHash",
          "type": "string"
        },
        {
          "internalType": "address",
          "name": "uploader",
          "type": "address"
        },
        {
          "internalType": "uint256",
          "name": "timestamp",
          "type": "uint256"
        }
      ],
      "stateMutability": "view",
      "type": "function",
      "constant": true
    },
    {
      "inputs": [
        {
          "internalType": "string",
          "name": "_hash",
          "type": "string"
        }
      ],
      "name": "storeHash",
      "outputs": [],
      "stateMutability": "nonpayable",
      "type": "function"
    },
    {
      "inputs": [
        {
          "internalType": "uint256",
          "name": "index",
          "type": "uint256"
        }
      ],
      "name": "getFile",
      "outputs": [
        {
          "internalType": "string",
          "name": "",
          "type": "string"
        },
        {
          "internalType": "address",
          "name": "",
          "type": "address"
        },
        {
          "internalType": "uint256",
          "name": "",
          "type": "uint256"
        }
      ],
      "stateMutability": "view",
      "type": "function",
      "constant": true
    },
    {
      "inputs": [],
      "name": "getFileCount",
      "outputs": [
        {
          "internalType": "uint256",
          "name": "",
          "type": "uint256"
        }
      ],
      "stateMutability": "view",
      "type": "function",
      "constant": true
    }
  ],
  "bytecode": "0x608060405234801561001057600080fd5b50610839806100206000396000f3fe608060405234801561001057600080fd5b506004361061004c5760003560e01c80632bfda3131461005157806371dc61cb14610083578063bab50cc91461009f578063f4c714b4146100bd575b600080fd5b61006b60048036038101906100669190610577565b6100ef565b60405161007a939291906105f7565b60405180910390f35b61009d60048036038101906100989190610536565b610259565b005b6100a7610328565b6040516100b49190610635565b60405180910390f35b6100d760048036038101906100d29190610577565b610334565b6040516100e6939291906105f7565b60405180910390f35b6060600080600080858154811061012f577f4e487b7100000000000000000000000000000000000000000000000000000000600052603260045260246000fd5b90600052602060002090600302016040518060600160405290816000820180546101589061074b565b80601f01602080910402602001604051908101604052809291908181526020018280546101849061074b565b80156101d15780601f106101a6576101008083540402835291602001916101d1565b820191906000526020600020905b8154815290600101906020018083116101b457829003601f168201915b505050505081526020016001820160009054906101000a900473ffffffffffffffffffffffffffffffffffffffff1673ffffffffffffffffffffffffffffffffffffffff1673ffffffffffffffffffffffffffffffffffffffff1681526020016002820154815250509050806000015181602001518260400151935093509350509193909250565b600060405180606001604052808381526020013373ffffffffffffffffffffffffffffffffffffffff16815260200142815250908060018154018082558091505060019003906000526020600020906003020160009091909190915060008201518160000190805190602001906102d1929190610416565b5060208201518160010160006101000a81548173ffffffffffffffffffffffffffffffffffffffff021916908373ffffffffffffffffffffffffffffffffffffffff16021790555060408201518160020155505050565b60008080549050905090565b6000818154811061034457600080fd5b90600052602060002090600302016000915090508060000180546103679061074b565b80601f01602080910402602001604051908101604052809291908181526020018280546103939061074b565b80156103e05780601f106103b5576101008083540402835291602001916103e0565b820191906000526020600020905b8154815290600101906020018083116103c357829003601f168201915b5050505050908060010160009054906101000a900473ffffffffffffffffffffffffffffffffffffffff16908060020154905083565b8280546104229061074b565b90600052602060002090601f016020900481019282610444576000855561048b565b82601f1061045d57805160ff191683800117855561048b565b8280016001018555821561048b579182015b8281111561048a57825182559160200191906001019061046f565b5b509050610498919061049c565b5090565b5b808211156104b557600081600090555060010161049d565b5090565b60006104cc6104c784610681565b610650565b9050828152602081018484840111156104e457600080fd5b6104ef848285610709565b509392505050565b600082601f83011261050857600080fd5b81356105188482602086016104b9565b91505092915050565b600081359050610530816107ec565b92915050565b60006020828403121561054857600080fd5b600082013567ffffffffffffffff81111561056257600080fd5b61056e848285016104f7565b91505092915050565b60006020828403121561058957600080fd5b600061059784828501610521565b91505092915050565b6105a9816106cd565b82525050565b60006105ba826106b1565b6105c481856106bc565b93506105d4818560208601610718565b6105dd816107db565b840191505092915050565b6105f1816106ff565b82525050565b6000606082019050818103600083015261061181866105af565b905061062060208301856105a0565b61062d60408301846105e8565b949350505050565b600060208201905061064a60008301846105e8565b92915050565b6000604051905081810181811067ffffffffffffffff82111715610677576106766107ac565b5b8060405250919050565b600067ffffffffffffffff82111561069c5761069b6107ac565b5b601f19601f8301169050602081019050919050565b600081519050919050565b600082825260208201905092915050565b60006106d8826106df565b9050919050565b600073ffffffffffffffffffffffffffffffffffffffff82169050919050565b6000819050919050565b82818337600083830152505050565b60005b8381101561073657808201518184015260208101905061071b565b83811115610745576000848401525b50505050565b6000600282049050600182168061076357607f821691505b602082108114156107775761077661077d565b5b50919050565b7f4e487b7100000000000000000000000000000000000000000000000000000000600052602260045260246000fd5b7f4e487b7100000000000000000000000000000000000000000000000000000000600052604160045260246000fd5b6000601f19601f8301169050919050565b6107f5816106ff565b811461080057600080fd5b5056fea2646970667358221220675649a2c59e2bcf542a4c464ff878b414270387ec90d61b205b8db98d41f8f564736f6c63430008000033",
  "immutableReferences": {},
  "source": "// SPDX-License-Identifier: MIT\npragma solidity ^0.8.0;\n\ncontract FileStorage {\n\n    struct File {\n        string fileHash;\n        address uploader;\n        uint timestamp;\n    }\n\n    File[] public files;\n\n    function storeHash(string memory _hash) public {\n        files.push(File(_hash, msg.sender, block.timestamp));\n    }\n\n    function getFile(uint index) public view returns (string memory, address, uint) {\n        File memory f = files[index];\n        return (f.fileHash, f.uploader, f.timestamp);\n    }\n\n    function getFileCount() public view returns (uint) {\n        return files.length;\n    }\n}",
  "sourcePath": "C:\\New\\SecureFileSharingo-main-main\\blockchain\\contracts\\FileStorage.sol",
  "compiler": {
    "name": "solc",
    "version": "0.8.0+commit.c7dfd78e.Emscripten.clang"
  },
  "schemaVersion": "3.4.16",
  "updatedAt": "2026-04-14T17:15:07.199Z",
  "networkType": "ethereum",
  "devdoc": {
    "kind": "dev",
    "methods": {},
    "version": 1
  },
  "userdoc": {
    "kind": "user",
    "methods": {},
    "version": 1
  }
}